{
  "abi": [
    {
      "inputs": [],
      "stateMutability": "nonpayable",
      "type": "constructor"
    },
    {
      "inputs": [
        {
          "internalType": "uint256",
          "name": "",
          "type": "uint256"
        }
      ],
      "name": "accountList",
      "outputs": [
        {
          "internalType": "address",
          "name": "owner",
          "type": "address"
        },
        {
          "internalType": "string",
          "name": "accountName",
          "type": "string"
        },
        {
          "internalType": "uint256",
          "name": "balances",
          "type": "uint256"
        }
      ],
      "stateMutability": "view",
      "type": "function"
    },
    {
      "inputs": [
        {
          "internalType": "string",
          "name": "accountName",
          "type": "string"
        }
      ],
      "name": "balanceOf",
      "outputs": [
        {
          "internalType": "uint256",
          "name": "",
          "type": "uint256"
        }
      ],
      "stateMutability": "nonpayable",
      "type": "function"
    },
    {
      "inputs": [],
      "name": "countAccount",
      "outputs": [
        {
          "internalType": "uint256",
          "name": "",
          "type": "uint256"
        }
      ],
      "stateMutability": "nonpayable",
      "type": "function"
    },
    {
      "inputs": [
        {
          "internalType": "string",
          "name": "accountName",
          "type": "string"
        }
      ],
      "name": "createAccount",
      "outputs": [],
      "stateMutability": "nonpayable",
      "type": "function"
    },
    {
      "inputs": [
        {
          "internalType": "string",
          "name": "accountName",
          "type": "string"
        }
      ],
      "name": "deposit",
      "outputs": [],
      "stateMutability": "payable",
      "type": "function"
    },
    {
      "inputs": [
        {
          "internalType": "string",
          "name": "accountName",
          "type": "string"
        }
      ],
      "name": "getIndexByAccountName",
      "outputs": [
        {
          "internalType": "bool",
          "name": "",
          "type": "bool"
        },
        {
          "internalType": "uint256",
          "name": "",
          "type": "uint256"
        }
      ],
      "stateMutability": "nonpayable",
      "type": "function"
    },
    {
      "inputs": [],
      "name": "getOwner",
      "outputs": [
        {
          "internalType": "address",
          "name": "",
          "type": "address"
        }
      ],
      "stateMutability": "nonpayable",
      "type": "function"
    },
    {
      "inputs": [
        {
          "internalType": "string",
          "name": "accountName",
          "type": "string"
        }
      ],
      "name": "isDupAccountName",
      "outputs": [
        {
          "internalType": "bool",
          "name": "",
          "type": "bool"
        }
      ],
      "stateMutability": "nonpayable",
      "type": "function"
    },
    {
      "inputs": [
        {
          "internalType": "string",
          "name": "currentAccount",
          "type": "string"
        },
        {
          "internalType": "string[]",
          "name": "reciveAccountList",
          "type": "string[]"
        },
        {
          "internalType": "uint256",
          "name": "amount",
          "type": "uint256"
        }
      ],
      "name": "multipleTranfer",
      "outputs": [],
      "stateMutability": "nonpayable",
      "type": "function"
    },
    {
      "inputs": [
        {
          "internalType": "address",
          "name": "newOwner",
          "type": "address"
        }
      ],
      "name": "setOwner",
      "outputs": [],
      "stateMutability": "nonpayable",
      "type": "function"
    },
    {
      "inputs": [
        {
          "internalType": "string",
          "name": "currentAccount",
          "type": "string"
        },
        {
          "internalType": "string",
          "name": "reciveAccount",
          "type": "string"
        },
        {
          "internalType": "uint256",
          "name": "amount",
          "type": "uint256"
        }
      ],
      "name": "tranfer",
      "outputs": [],
      "stateMutability": "nonpayable",
      "type": "function"
    },
    {
      "inputs": [
        {
          "internalType": "string",
          "name": "accountName",
          "type": "string"
        },
        {
          "internalType": "uint256",
          "name": "amount",
          "type": "uint256"
        }
      ],
      "name": "withdraw",
      "outputs": [],
      "stateMutability": "nonpayable",
      "type": "function"
    }
  ],
  "bytecode": "608060405234801561001057600080fd5b50600280546001600160a01b0319163317905561116a806100326000396000f3fe6080604052600436106100a75760003560e01c80637163480c116100645780637163480c146101a0578063893d20e8146101c05780639be9c171146101e8578063a26e118614610208578063a548e9ef1461021b578063dbd79b751461023057600080fd5b8063090a7c19146100ac57806313af4035146100e1578063298daf5b1461010357806330b39a621461012357806335ee5f87146101435780634ea98d1614610171575b600080fd5b3480156100b857600080fd5b506100cc6100c7366004610b9e565b610267565b60405190151581526020015b60405180910390f35b3480156100ed57600080fd5b506101016100fc366004610be0565b610315565b005b34801561010f57600080fd5b5061010161011e366004610b9e565b61038e565b34801561012f57600080fd5b5061010161013e366004610c10565b6104e4565b34801561014f57600080fd5b5061016361015e366004610b9e565b6105ea565b6040519081526020016100d8565b34801561017d57600080fd5b5061019161018c366004610c5c565b610649565b6040516100d893929190610c75565b3480156101ac57600080fd5b506101016101bb366004610ce2565b610711565b3480156101cc57600080fd5b506002546040516001600160a01b0390911681526020016100d8565b3480156101f457600080fd5b50610101610203366004610d84565b610765565b610101610216366004610b9e565b6109f1565b34801561022757600080fd5b50600154610163565b34801561023c57600080fd5b5061025061024b366004610b9e565b610aa7565b6040805192151583526020830191909152016100d8565b6000805b600154811015610309576001818154811061028857610288610df8565b90600052602060002090600302016001016040516020016102a99190610e48565b6040516020818303038152906040528051906020012084846040516020016102d2929190610ed3565b60405160208183030381529060405280519060200120036102f757600191505061030f565b8061030181610f18565b91505061026b565b50600090505b92915050565b6002546001600160a01b0316331461036c5760405162461bcd60e51b81526020600482015260156024820152743cb7ba9034b9903737ba103130b7359037bbb732b960591b60448201526064015b60405180910390fd5b600280546001600160a01b0319166001600160a01b0392909216919091179055565b600061039a8383610267565b905080156103ea5760405162461bcd60e51b815260206004820152601b60248201527f6973204475706c69636174617465206163636f756e74206e616d6500000000006044820152606401610363565b60006040518060600160405280336001600160a01b0316815260200185858080601f01602080910402602001604051908101604052809392919081815260200183838082843760009201829052509385525050506020918201819052600180548082018255915282517fb10e2d527612073b26eecdfd717e6a320cf44b4afac2b0732d9fcbe2b7fa0cf6600390920291820180546001600160a01b0319166001600160a01b039092169190911781559183015192935083927fb10e2d527612073b26eecdfd717e6a320cf44b4afac2b0732d9fcbe2b7fa0cf7909101906104d19082610f92565b5060408201518160020155505050505050565b6000806104f18585610aa7565b91509150816105125760405162461bcd60e51b815260040161036390611052565b336001600160a01b03166001828154811061052f5761052f610df8565b60009182526020909120600390910201546001600160a01b03161461055357600080fd5b826001828154811061056757610567610df8565b906000526020600020906003020160020154101561058457600080fd5b33600090815260208190526040812080548592906105a390849061107d565b9250508190555082600182815481106105be576105be610df8565b906000526020600020906003020160020160008282546105de919061107d565b90915550505050505050565b60008060006105f98585610aa7565b915091508161061a5760405162461bcd60e51b815260040161036390611052565b6001818154811061062d5761062d610df8565b9060005260206000209060030201600201549250505092915050565b6001818154811061065957600080fd5b6000918252602090912060039091020180546001820180546001600160a01b0390921693509061068890610e0e565b80601f01602080910402602001604051908101604052809291908181526020018280546106b490610e0e565b80156107015780601f106106d657610100808354040283529160200191610701565b820191906000526020600020905b8154815290600101906020018083116106e457829003601f168201915b5050505050908060020154905083565b60005b8281101561075d5761074b868686868581811061073357610733610df8565b90506020028101906107459190611094565b86610765565b8061075581610f18565b915050610714565b505050505050565b6000806107728787610aa7565b91509150816107935760405162461bcd60e51b815260040161036390611052565b336001600160a01b0316600182815481106107b0576107b0610df8565b60009182526020909120600390910201546001600160a01b0316146107d457600080fd5b82600182815481106107e8576107e8610df8565b906000526020600020906003020160020154101561080557600080fd5b6000806108128787610aa7565b91509150816108335760405162461bcd60e51b815260040161036390611052565b60006001828154811061084857610848610df8565b6000918252602090912060039091020154600180546001600160a01b03909216918690811061087957610879610df8565b60009182526020909120600390910201546001600160a01b0316146108e45760646108a58760016110db565b6108af91906110fa565b6002546001600160a01b03166000908152602081905260408120805492935083929091906108de90849061111c565b90915550505b336000908152602081905260408120805488929061090390849061107d565b92505081905550856001858154811061091e5761091e610df8565b9060005260206000209060030201600201600082825461093e919061107d565b9091555061094e9050818761107d565b6001838154811061096157610961610df8565b90600052602060002090600302016002016000828254610981919061111c565b909155506109919050818761107d565b600080600185815481106109a7576109a7610df8565b600091825260208083206003909202909101546001600160a01b03168352820192909252604001812080549091906109e090849061111c565b909155505050505050505050505050565b6000806109fe8484610aa7565b9150915081610a425760405162461bcd60e51b815260206004820152601060248201526f1b9bc81058d8dbdd5b9d08119bdd5b9960821b6044820152606401610363565b3360009081526020819052604081208054349290610a6190849061111c565b925050819055503460018281548110610a7c57610a7c610df8565b90600052602060002090600302016002016000828254610a9c919061111c565b909155505050505050565b60008060005b600154811015610b4c5760018181548110610aca57610aca610df8565b9060005260206000209060030201600101604051602001610aeb9190610e48565b604051602081830303815290604052805190602001208585604051602001610b14929190610ed3565b6040516020818303038152906040528051906020012003610b3a57600192509050610b55565b80610b4481610f18565b915050610aad565b50600080915091505b9250929050565b60008083601f840112610b6e57600080fd5b50813567ffffffffffffffff811115610b8657600080fd5b602083019150836020828501011115610b5557600080fd5b60008060208385031215610bb157600080fd5b823567ffffffffffffffff811115610bc857600080fd5b610bd485828601610b5c565b90969095509350505050565b600060208284031215610bf257600080fd5b81356001600160a01b0381168114610c0957600080fd5b9392505050565b600080600060408486031215610c2557600080fd5b833567ffffffffffffffff811115610c3c57600080fd5b610c4886828701610b5c565b909790965060209590950135949350505050565b600060208284031215610c6e57600080fd5b5035919050565b60018060a01b038416815260006020606081840152845180606085015260005b81811015610cb157868101830151858201608001528201610c95565b81811115610cc3576000608083870101525b5060408401949094525050601f91909101601f19160160800192915050565b600080600080600060608688031215610cfa57600080fd5b853567ffffffffffffffff80821115610d1257600080fd5b610d1e89838a01610b5c565b90975095506020880135915080821115610d3757600080fd5b818801915088601f830112610d4b57600080fd5b813581811115610d5a57600080fd5b8960208260051b8501011115610d6f57600080fd5b96999598505060200195604001359392505050565b600080600080600060608688031215610d9c57600080fd5b853567ffffffffffffffff80821115610db457600080fd5b610dc089838a01610b5c565b90975095506020880135915080821115610dd957600080fd5b50610de688828901610b5c565b96999598509660400135949350505050565b634e487b7160e01b600052603260045260246000fd5b600181811c90821680610e2257607f821691505b602082108103610e4257634e487b7160e01b600052602260045260246000fd5b50919050565b6000602080835260008454610e5c81610e0e565b80848701526040600180841660008114610e7d5760018114610e9757610ec5565b60ff1985168984015283151560051b890183019550610ec5565b896000528660002060005b85811015610ebd5781548b8201860152908301908801610ea2565b8a0184019650505b509398975050505050505050565b60208152816020820152818360408301376000818301604090810191909152601f909201601f19160101919050565b634e487b7160e01b600052601160045260246000fd5b600060018201610f2a57610f2a610f02565b5060010190565b634e487b7160e01b600052604160045260246000fd5b601f821115610f8d57600081815260208120601f850160051c81016020861015610f6e5750805b601f850160051c820191505b8181101561075d57828155600101610f7a565b505050565b815167ffffffffffffffff811115610fac57610fac610f31565b610fc081610fba8454610e0e565b84610f47565b602080601f831160018114610ff55760008415610fdd5750858301515b600019600386901b1c1916600185901b17855561075d565b600085815260208120601f198616915b8281101561102457888601518255948401946001909101908401611005565b50858210156110425787850151600019600388901b60f8161c191681555b5050505050600190811b01905550565b6020808252601190820152701b9bc81058d8c81bdd5b9d08119bdd5b99607a1b604082015260600190565b60008282101561108f5761108f610f02565b500390565b6000808335601e198436030181126110ab57600080fd5b83018035915067ffffffffffffffff8211156110c657600080fd5b602001915036819003821315610b5557600080fd5b60008160001904831182151516156110f5576110f5610f02565b500290565b60008261111757634e487b7160e01b600052601260045260246000fd5b500490565b6000821982111561112f5761112f610f02565b50019056fea2646970667358221220e60576749ee2e00680909c3b6158dfb8c9a257f748ef93022a7092a229659eeb64736f6c634300080f0033",
  "bytecodeSha1": "c1e3dd76095122a5152dccbd43074b635f9e0b55",
  "compiler": {
    "evm_version": "istanbul",
    "optimizer": {
      "enabled": true,
      "runs": 200
    },
    "version": "0.8.15+commit.e14f2714"
  },
  "contractName": "Bank",
  "language": "Solidity",
  "natspec": {
    "kind": "dev",
    "methods": {},
    "version": 1
  },
  "opcodes": "PUSH1 0x80 PUSH1 0x40 MSTORE PUSH1 0x4 CALLDATASIZE LT PUSH2 0xA7 JUMPI PUSH1 0x0 CALLDATALOAD PUSH1 0xE0 SHR DUP1 PUSH4 0x7163480C GT PUSH2 0x64 JUMPI DUP1 PUSH4 0x7163480C EQ PUSH2 0x1A0 JUMPI DUP1 PUSH4 0x893D20E8 EQ PUSH2 0x1C0 JUMPI DUP1 PUSH4 0x9BE9C171 EQ PUSH2 0x1E8 JUMPI DUP1 PUSH4 0xA26E1186 EQ PUSH2 0x208 JUMPI DUP1 PUSH4 0xA548E9EF EQ PUSH2 0x21B JUMPI DUP1 PUSH4 0xDBD79B75 EQ PUSH2 0x230 JUMPI PUSH1 0x0 DUP1 REVERT JUMPDEST DUP1 PUSH4 0x90A7C19 EQ PUSH2 0xAC JUMPI DUP1 PUSH4 0x13AF4035 EQ PUSH2 0xE1 JUMPI DUP1 PUSH4 0x298DAF5B EQ PUSH2 0x103 JUMPI DUP1 PUSH4 0x30B39A62 EQ PUSH2 0x123 JUMPI DUP1 PUSH4 0x35EE5F87 EQ PUSH2 0x143 JUMPI DUP1 PUSH4 0x4EA98D16 EQ PUSH2 0x171 JUMPI JUMPDEST PUSH1 0x0 DUP1 REVERT JUMPDEST CALLVALUE DUP1 ISZERO PUSH2 0xB8 JUMPI PUSH1 0x0 DUP1 REVERT JUMPDEST POP PUSH2 0xCC PUSH2 0xC7 CALLDATASIZE PUSH1 0x4 PUSH2 0xB9E JUMP JUMPDEST PUSH2 0x267 JUMP JUMPDEST PUSH1 0x40 MLOAD SWAP1 ISZERO ISZERO DUP2 MSTORE PUSH1 0x20 ADD JUMPDEST PUSH1 0x40 MLOAD DUP1 SWAP2 SUB SWAP1 RETURN JUMPDEST CALLVALUE DUP1 ISZERO PUSH2 0xED JUMPI PUSH1 0x0 DUP1 REVERT JUMPDEST POP PUSH2 0x101 PUSH2 0xFC CALLDATASIZE PUSH1 0x4 PUSH2 0xBE0 JUMP JUMPDEST PUSH2 0x315 JUMP JUMPDEST STOP JUMPDEST CALLVALUE DUP1 ISZERO PUSH2 0x10F JUMPI PUSH1 0x0 DUP1 REVERT JUMPDEST POP PUSH2 0x101 PUSH2 0x11E CALLDATASIZE PUSH1 0x4 PUSH2 0xB9E JUMP JUMPDEST PUSH2 0x38E JUMP JUMPDEST CALLVALUE DUP1 ISZERO PUSH2 0x12F JUMPI PUSH1 0x0 DUP1 REVERT JUMPDEST POP PUSH2 0x101 PUSH2 0x13E CALLDATASIZE PUSH1 0x4 PUSH2 0xC10 JUMP JUMPDEST PUSH2 0x4E4 JUMP JUMPDEST CALLVALUE DUP1 ISZERO PUSH2 0x14F JUMPI PUSH1 0x0 DUP1 REVERT JUMPDEST POP PUSH2 0x163 PUSH2 0x15E CALLDATASIZE PUSH1 0x4 PUSH2 0xB9E JUMP JUMPDEST PUSH2 0x5EA JUMP JUMPDEST PUSH1 0x40 MLOAD SWAP1 DUP2 MSTORE PUSH1 0x20 ADD PUSH2 0xD8 JUMP JUMPDEST CALLVALUE DUP1 ISZERO PUSH2 0x17D JUMPI PUSH1 0x0 DUP1 REVERT JUMPDEST POP PUSH2 0x191 PUSH2 0x18C CALLDATASIZE PUSH1 0x4 PUSH2 0xC5C JUMP JUMPDEST PUSH2 0x649 JUMP JUMPDEST PUSH1 0x40 MLOAD PUSH2 0xD8 SWAP4 SWAP3 SWAP2 SWAP1 PUSH2 0xC75 JUMP JUMPDEST CALLVALUE DUP1 ISZERO PUSH2 0x1AC JUMPI PUSH1 0x0 DUP1 REVERT JUMPDEST POP PUSH2 0x101 PUSH2 0x1BB CALLDATASIZE PUSH1 0x4 PUSH2 0xCE2 JUMP JUMPDEST PUSH2 0x711 JUMP JUMPDEST CALLVALUE DUP1 ISZERO PUSH2 0x1CC JUMPI PUSH1 0x0 DUP1 REVERT JUMPDEST POP PUSH1 0x2 SLOAD PUSH1 0x40 MLOAD PUSH1 0x1 PUSH1 0x1 PUSH1 0xA0 SHL SUB SWAP1 SWAP2 AND DUP2 MSTORE PUSH1 0x20 ADD PUSH2 0xD8 JUMP JUMPDEST CALLVALUE DUP1 ISZERO PUSH2 0x1F4 JUMPI PUSH1 0x0 DUP1 REVERT JUMPDEST POP PUSH2 0x101 PUSH2 0x203 CALLDATASIZE PUSH1 0x4 PUSH2 0xD84 JUMP JUMPDEST PUSH2 0x765 JUMP JUMPDEST PUSH2 0x101 PUSH2 0x216 CALLDATASIZE PUSH1 0x4 PUSH2 0xB9E JUMP JUMPDEST PUSH2 0x9F1 JUMP JUMPDEST CALLVALUE DUP1 ISZERO PUSH2 0x227 JUMPI PUSH1 0x0 DUP1 REVERT JUMPDEST POP PUSH1 0x1 SLOAD PUSH2 0x163 JUMP JUMPDEST CALLVALUE DUP1 ISZERO PUSH2 0x23C JUMPI PUSH1 0x0 DUP1 REVERT JUMPDEST POP PUSH2 0x250 PUSH2 0x24B CALLDATASIZE PUSH1 0x4 PUSH2 0xB9E JUMP JUMPDEST PUSH2 0xAA7 JUMP JUMPDEST PUSH1 0x40 DUP1 MLOAD SWAP3 ISZERO ISZERO DUP4 MSTORE PUSH1 0x20 DUP4 ADD SWAP2 SWAP1 SWAP2 MSTORE ADD PUSH2 0xD8 JUMP JUMPDEST PUSH1 0x0 DUP1 JUMPDEST PUSH1 0x1 SLOAD DUP2 LT ISZERO PUSH2 0x309 JUMPI PUSH1 0x1 DUP2 DUP2 SLOAD DUP2 LT PUSH2 0x288 JUMPI PUSH2 0x288 PUSH2 0xDF8 JUMP JUMPDEST SWAP1 PUSH1 0x0 MSTORE PUSH1 0x20 PUSH1 0x0 KECCAK256 SWAP1 PUSH1 0x3 MUL ADD PUSH1 0x1 ADD PUSH1 0x40 MLOAD PUSH1 0x20 ADD PUSH2 0x2A9 SWAP2 SWAP1 PUSH2 0xE48 JUMP JUMPDEST PUSH1 0x40 MLOAD PUSH1 0x20 DUP2 DUP4 SUB SUB DUP2 MSTORE SWAP1 PUSH1 0x40 MSTORE DUP1 MLOAD SWAP1 PUSH1 0x20 ADD KECCAK256 DUP5 DUP5 PUSH1 0x40 MLOAD PUSH1 0x20 ADD PUSH2 0x2D2 SWAP3 SWAP2 SWAP1 PUSH2 0xED3 JUMP JUMPDEST PUSH1 0x40 MLOAD PUSH1 0x20 DUP2 DUP4 SUB SUB DUP2 MSTORE SWAP1 PUSH1 0x40 MSTORE DUP1 MLOAD SWAP1 PUSH1 0x20 ADD KECCAK256 SUB PUSH2 0x2F7 JUMPI PUSH1 0x1 SWAP2 POP POP PUSH2 0x30F JUMP JUMPDEST DUP1 PUSH2 0x301 DUP2 PUSH2 0xF18 JUMP JUMPDEST SWAP2 POP POP PUSH2 0x26B JUMP JUMPDEST POP PUSH1 0x0 SWAP1 POP JUMPDEST SWAP3 SWAP2 POP POP JUMP JUMPDEST PUSH1 0x2 SLOAD PUSH1 0x1 PUSH1 0x1 PUSH1 0xA0 SHL SUB AND CALLER EQ PUSH2 0x36C JUMPI PUSH1 0x40 MLOAD PUSH3 0x461BCD PUSH1 0xE5 SHL DUP2 MSTORE PUSH1 0x20 PUSH1 0x4 DUP3 ADD MSTORE PUSH1 0x15 PUSH1 0x24 DUP3 ADD MSTORE PUSH21 0x3CB7BA9034B9903737BA103130B7359037BBB732B9 PUSH1 0x59 SHL PUSH1 0x44 DUP3 ADD MSTORE PUSH1 0x64 ADD JUMPDEST PUSH1 0x40 MLOAD DUP1 SWAP2 SUB SWAP1 REVERT JUMPDEST PUSH1 0x2 DUP1 SLOAD PUSH1 0x1 PUSH1 0x1 PUSH1 0xA0 SHL SUB NOT AND PUSH1 0x1 PUSH1 0x1 PUSH1 0xA0 SHL SUB SWAP3 SWAP1 SWAP3 AND SWAP2 SWAP1 SWAP2 OR SWAP1 SSTORE JUMP JUMPDEST PUSH1 0x0 PUSH2 0x39A DUP4 DUP4 PUSH2 0x267 JUMP JUMPDEST SWAP1 POP DUP1 ISZERO PUSH2 0x3EA JUMPI PUSH1 0x40 MLOAD PUSH3 0x461BCD PUSH1 0xE5 SHL DUP2 MSTORE PUSH1 0x20 PUSH1 0x4 DUP3 ADD MSTORE PUSH1 0x1B PUSH1 0x24 DUP3 ADD MSTORE PUSH32 0x6973204475706C69636174617465206163636F756E74206E616D650000000000 PUSH1 0x44 DUP3 ADD MSTORE PUSH1 0x64 ADD PUSH2 0x363 JUMP JUMPDEST PUSH1 0x0 PUSH1 0x40 MLOAD DUP1 PUSH1 0x60 ADD PUSH1 0x40 MSTORE DUP1 CALLER PUSH1 0x1 PUSH1 0x1 PUSH1 0xA0 SHL SUB AND DUP2 MSTORE PUSH1 0x20 ADD DUP6 DUP6 DUP1 DUP1 PUSH1 0x1F ADD PUSH1 0x20 DUP1 SWAP2 DIV MUL PUSH1 0x20 ADD PUSH1 0x40 MLOAD SWAP1 DUP2 ADD PUSH1 0x40 MSTORE DUP1 SWAP4 SWAP3 SWAP2 SWAP1 DUP2 DUP2 MSTORE PUSH1 0x20 ADD DUP4 DUP4 DUP1 DUP3 DUP5 CALLDATACOPY PUSH1 0x0 SWAP3 ADD DUP3 SWAP1 MSTORE POP SWAP4 DUP6 MSTORE POP POP POP PUSH1 0x20 SWAP2 DUP3 ADD DUP2 SWAP1 MSTORE PUSH1 0x1 DUP1 SLOAD DUP1 DUP3 ADD DUP3 SSTORE SWAP2 MSTORE DUP3 MLOAD PUSH32 0xB10E2D527612073B26EECDFD717E6A320CF44B4AFAC2B0732D9FCBE2B7FA0CF6 PUSH1 0x3 SWAP1 SWAP3 MUL SWAP2 DUP3 ADD DUP1 SLOAD PUSH1 0x1 PUSH1 0x1 PUSH1 0xA0 SHL SUB NOT AND PUSH1 0x1 PUSH1 0x1 PUSH1 0xA0 SHL SUB SWAP1 SWAP3 AND SWAP2 SWAP1 SWAP2 OR DUP2 SSTORE SWAP2 DUP4 ADD MLOAD SWAP3 SWAP4 POP DUP4 SWAP3 PUSH32 0xB10E2D527612073B26EECDFD717E6A320CF44B4AFAC2B0732D9FCBE2B7FA0CF7 SWAP1 SWAP2 ADD SWAP1 PUSH2 0x4D1 SWAP1 DUP3 PUSH2 0xF92 JUMP JUMPDEST POP PUSH1 0x40 DUP3 ADD MLOAD DUP2 PUSH1 0x2 ADD SSTORE POP POP POP POP POP POP JUMP JUMPDEST PUSH1 0x0 DUP1 PUSH2 0x4F1 DUP6 DUP6 PUSH2 0xAA7 JUMP JUMPDEST SWAP2 POP SWAP2 POP DUP2 PUSH2 0x512 JUMPI PUSH1 0x40 MLOAD PUSH3 0x461BCD PUSH1 0xE5 SHL DUP2 MSTORE PUSH1 0x4 ADD PUSH2 0x363 SWAP1 PUSH2 0x1052 JUMP JUMPDEST CALLER PUSH1 0x1 PUSH1 0x1 PUSH1 0xA0 SHL SUB AND PUSH1 0x1 DUP3 DUP2 SLOAD DUP2 LT PUSH2 0x52F JUMPI PUSH2 0x52F PUSH2 0xDF8 JUMP JUMPDEST PUSH1 0x0 SWAP2 DUP3 MSTORE PUSH1 0x20 SWAP1 SWAP2 KECCAK256 PUSH1 0x3 SWAP1 SWAP2 MUL ADD SLOAD PUSH1 0x1 PUSH1 0x1 PUSH1 0xA0 SHL SUB AND EQ PUSH2 0x553 JUMPI PUSH1 0x0 DUP1 REVERT JUMPDEST DUP3 PUSH1 0x1 DUP3 DUP2 SLOAD DUP2 LT PUSH2 0x567 JUMPI PUSH2 0x567 PUSH2 0xDF8 JUMP JUMPDEST SWAP1 PUSH1 0x0 MSTORE PUSH1 0x20 PUSH1 0x0 KECCAK256 SWAP1 PUSH1 0x3 MUL ADD PUSH1 0x2 ADD SLOAD LT ISZERO PUSH2 0x584 JUMPI PUSH1 0x0 DUP1 REVERT JUMPDEST CALLER PUSH1 0x0 SWAP1 DUP2 MSTORE PUSH1 0x20 DUP2 SWAP1 MSTORE PUSH1 0x40 DUP2 KECCAK256 DUP1 SLOAD DUP6 SWAP3 SWAP1 PUSH2 0x5A3 SWAP1 DUP5 SWAP1 PUSH2 0x107D JUMP JUMPDEST SWAP3 POP POP DUP2 SWAP1 SSTORE POP DUP3 PUSH1 0x1 DUP3 DUP2 SLOAD DUP2 LT PUSH2 0x5BE JUMPI PUSH2 0x5BE PUSH2 0xDF8 JUMP JUMPDEST SWAP1 PUSH1 0x0 MSTORE PUSH1 0x20 PUSH1 0x0 KECCAK256 SWAP1 PUSH1 0x3 MUL ADD PUSH1 0x2 ADD PUSH1 0x0 DUP3 DUP3 SLOAD PUSH2 0x5DE SWAP2 SWAP1 PUSH2 0x107D JUMP JUMPDEST SWAP1 SWAP2 SSTORE POP POP POP POP POP POP POP JUMP JUMPDEST PUSH1 0x0 DUP1 PUSH1 0x0 PUSH2 0x5F9 DUP6 DUP6 PUSH2 0xAA7 JUMP JUMPDEST SWAP2 POP SWAP2 POP DUP2 PUSH2 0x61A JUMPI PUSH1 0x40 MLOAD PUSH3 0x461BCD PUSH1 0xE5 SHL DUP2 MSTORE PUSH1 0x4 ADD PUSH2 0x363 SWAP1 PUSH2 0x1052 JUMP JUMPDEST PUSH1 0x1 DUP2 DUP2 SLOAD DUP2 LT PUSH2 0x62D JUMPI PUSH2 0x62D PUSH2 0xDF8 JUMP JUMPDEST SWAP1 PUSH1 0x0 MSTORE PUSH1 0x20 PUSH1 0x0 KECCAK256 SWAP1 PUSH1 0x3 MUL ADD PUSH1 0x2 ADD SLOAD SWAP3 POP POP POP SWAP3 SWAP2 POP POP JUMP JUMPDEST PUSH1 0x1 DUP2 DUP2 SLOAD DUP2 LT PUSH2 0x659 JUMPI PUSH1 0x0 DUP1 REVERT JUMPDEST PUSH1 0x0 SWAP2 DUP3 MSTORE PUSH1 0x20 SWAP1 SWAP2 KECCAK256 PUSH1 0x3 SWAP1 SWAP2 MUL ADD DUP1 SLOAD PUSH1 0x1 DUP3 ADD DUP1 SLOAD PUSH1 0x1 PUSH1 0x1 PUSH1 0xA0 SHL SUB SWAP1 SWAP3 AND SWAP4 POP SWAP1 PUSH2 0x688 SWAP1 PUSH2 0xE0E JUMP JUMPDEST DUP1 PUSH1 0x1F ADD PUSH1 0x20 DUP1 SWAP2 DIV MUL PUSH1 0x20 ADD PUSH1 0x40 MLOAD SWAP1 DUP2 ADD PUSH1 0x40 MSTORE DUP1 SWAP3 SWAP2 SWAP1 DUP2 DUP2 MSTORE PUSH1 0x20 ADD DUP3 DUP1 SLOAD PUSH2 0x6B4 SWAP1 PUSH2 0xE0E JUMP JUMPDEST DUP1 ISZERO PUSH2 0x701 JUMPI DUP1 PUSH1 0x1F LT PUSH2 0x6D6 JUMPI PUSH2 0x100 DUP1 DUP4 SLOAD DIV MUL DUP4 MSTORE SWAP2 PUSH1 0x20 ADD SWAP2 PUSH2 0x701 JUMP JUMPDEST DUP3 ADD SWAP2 SWAP1 PUSH1 0x0 MSTORE PUSH1 0x20 PUSH1 0x0 KECCAK256 SWAP1 JUMPDEST DUP2 SLOAD DUP2 MSTORE SWAP1 PUSH1 0x1 ADD SWAP1 PUSH1 0x20 ADD DUP1 DUP4 GT PUSH2 0x6E4 JUMPI DUP3 SWAP1 SUB PUSH1 0x1F AND DUP3 ADD SWAP2 JUMPDEST POP POP POP POP POP SWAP1 DUP1 PUSH1 0x2 ADD SLOAD SWAP1 POP DUP4 JUMP JUMPDEST PUSH1 0x0 JUMPDEST DUP3 DUP2 LT ISZERO PUSH2 0x75D JUMPI PUSH2 0x74B DUP7 DUP7 DUP7 DUP7 DUP6 DUP2 DUP2 LT PUSH2 0x733 JUMPI PUSH2 0x733 PUSH2 0xDF8 JUMP JUMPDEST SWAP1 POP PUSH1 0x20 MUL DUP2 ADD SWAP1 PUSH2 0x745 SWAP2 SWAP1 PUSH2 0x1094 JUMP JUMPDEST DUP7 PUSH2 0x765 JUMP JUMPDEST DUP1 PUSH2 0x755 DUP2 PUSH2 0xF18 JUMP JUMPDEST SWAP2 POP POP PUSH2 0x714 JUMP JUMPDEST POP POP POP POP POP POP JUMP JUMPDEST PUSH1 0x0 DUP1 PUSH2 0x772 DUP8 DUP8 PUSH2 0xAA7 JUMP JUMPDEST SWAP2 POP SWAP2 POP DUP2 PUSH2 0x793 JUMPI PUSH1 0x40 MLOAD PUSH3 0x461BCD PUSH1 0xE5 SHL DUP2 MSTORE PUSH1 0x4 ADD PUSH2 0x363 SWAP1 PUSH2 0x1052 JUMP JUMPDEST CALLER PUSH1 0x1 PUSH1 0x1 PUSH1 0xA0 SHL SUB AND PUSH1 0x1 DUP3 DUP2 SLOAD DUP2 LT PUSH2 0x7B0 JUMPI PUSH2 0x7B0 PUSH2 0xDF8 JUMP JUMPDEST PUSH1 0x0 SWAP2 DUP3 MSTORE PUSH1 0x20 SWAP1 SWAP2 KECCAK256 PUSH1 0x3 SWAP1 SWAP2 MUL ADD SLOAD PUSH1 0x1 PUSH1 0x1 PUSH1 0xA0 SHL SUB AND EQ PUSH2 0x7D4 JUMPI PUSH1 0x0 DUP1 REVERT JUMPDEST DUP3 PUSH1 0x1 DUP3 DUP2 SLOAD DUP2 LT PUSH2 0x7E8 JUMPI PUSH2 0x7E8 PUSH2 0xDF8 JUMP JUMPDEST SWAP1 PUSH1 0x0 MSTORE PUSH1 0x20 PUSH1 0x0 KECCAK256 SWAP1 PUSH1 0x3 MUL ADD PUSH1 0x2 ADD SLOAD LT ISZERO PUSH2 0x805 JUMPI PUSH1 0x0 DUP1 REVERT JUMPDEST PUSH1 0x0 DUP1 PUSH2 0x812 DUP8 DUP8 PUSH2 0xAA7 JUMP JUMPDEST SWAP2 POP SWAP2 POP DUP2 PUSH2 0x833 JUMPI PUSH1 0x40 MLOAD PUSH3 0x461BCD PUSH1 0xE5 SHL DUP2 MSTORE PUSH1 0x4 ADD PUSH2 0x363 SWAP1 PUSH2 0x1052 JUMP JUMPDEST PUSH1 0x0 PUSH1 0x1 DUP3 DUP2 SLOAD DUP2 LT PUSH2 0x848 JUMPI PUSH2 0x848 PUSH2 0xDF8 JUMP JUMPDEST PUSH1 0x0 SWAP2 DUP3 MSTORE PUSH1 0x20 SWAP1 SWAP2 KECCAK256 PUSH1 0x3 SWAP1 SWAP2 MUL ADD SLOAD PUSH1 0x1 DUP1 SLOAD PUSH1 0x1 PUSH1 0x1 PUSH1 0xA0 SHL SUB SWAP1 SWAP3 AND SWAP2 DUP7 SWAP1 DUP2 LT PUSH2 0x879 JUMPI PUSH2 0x879 PUSH2 0xDF8 JUMP JUMPDEST PUSH1 0x0 SWAP2 DUP3 MSTORE PUSH1 0x20 SWAP1 SWAP2 KECCAK256 PUSH1 0x3 SWAP1 SWAP2 MUL ADD SLOAD PUSH1 0x1 PUSH1 0x1 PUSH1 0xA0 SHL SUB AND EQ PUSH2 0x8E4 JUMPI PUSH1 0x64 PUSH2 0x8A5 DUP8 PUSH1 0x1 PUSH2 0x10DB JUMP JUMPDEST PUSH2 0x8AF SWAP2 SWAP1 PUSH2 0x10FA JUMP JUMPDEST PUSH1 0x2 SLOAD PUSH1 0x1 PUSH1 0x1 PUSH1 0xA0 SHL SUB AND PUSH1 0x0 SWAP1 DUP2 MSTORE PUSH1 0x20 DUP2 SWAP1 MSTORE PUSH1 0x40 DUP2 KECCAK256 DUP1 SLOAD SWAP3 SWAP4 POP DUP4 SWAP3 SWAP1 SWAP2 SWAP1 PUSH2 0x8DE SWAP1 DUP5 SWAP1 PUSH2 0x111C JUMP JUMPDEST SWAP1 SWAP2 SSTORE POP POP JUMPDEST CALLER PUSH1 0x0 SWAP1 DUP2 MSTORE PUSH1 0x20 DUP2 SWAP1 MSTORE PUSH1 0x40 DUP2 KECCAK256 DUP1 SLOAD DUP9 SWAP3 SWAP1 PUSH2 0x903 SWAP1 DUP5 SWAP1 PUSH2 0x107D JUMP JUMPDEST SWAP3 POP POP DUP2 SWAP1 SSTORE POP DUP6 PUSH1 0x1 DUP6 DUP2 SLOAD DUP2 LT PUSH2 0x91E JUMPI PUSH2 0x91E PUSH2 0xDF8 JUMP JUMPDEST SWAP1 PUSH1 0x0 MSTORE PUSH1 0x20 PUSH1 0x0 KECCAK256 SWAP1 PUSH1 0x3 MUL ADD PUSH1 0x2 ADD PUSH1 0x0 DUP3 DUP3 SLOAD PUSH2 0x93E SWAP2 SWAP1 PUSH2 0x107D JUMP JUMPDEST SWAP1 SWAP2 SSTORE POP PUSH2 0x94E SWAP1 POP DUP2 DUP8 PUSH2 0x107D JUMP JUMPDEST PUSH1 0x1 DUP4 DUP2 SLOAD DUP2 LT PUSH2 0x961 JUMPI PUSH2 0x961 PUSH2 0xDF8 JUMP JUMPDEST SWAP1 PUSH1 0x0 MSTORE PUSH1 0x20 PUSH1 0x0 KECCAK256 SWAP1 PUSH1 0x3 MUL ADD PUSH1 0x2 ADD PUSH1 0x0 DUP3 DUP3 SLOAD PUSH2 0x981 SWAP2 SWAP1 PUSH2 0x111C JUMP JUMPDEST SWAP1 SWAP2 SSTORE POP PUSH2 0x991 SWAP1 POP DUP2 DUP8 PUSH2 0x107D JUMP JUMPDEST PUSH1 0x0 DUP1 PUSH1 0x1 DUP6 DUP2 SLOAD DUP2 LT PUSH2 0x9A7 JUMPI PUSH2 0x9A7 PUSH2 0xDF8 JUMP JUMPDEST PUSH1 0x0 SWAP2 DUP3 MSTORE PUSH1 0x20 DUP1 DUP4 KECCAK256 PUSH1 0x3 SWAP1 SWAP3 MUL SWAP1 SWAP2 ADD SLOAD PUSH1 0x1 PUSH1 0x1 PUSH1 0xA0 SHL SUB AND DUP4 MSTORE DUP3 ADD SWAP3 SWAP1 SWAP3 MSTORE PUSH1 0x40 ADD DUP2 KECCAK256 DUP1 SLOAD SWAP1 SWAP2 SWAP1 PUSH2 0x9E0 SWAP1 DUP5 SWAP1 PUSH2 0x111C JUMP JUMPDEST SWAP1 SWAP2 SSTORE POP POP POP POP POP POP POP POP POP POP POP POP JUMP JUMPDEST PUSH1 0x0 DUP1 PUSH2 0x9FE DUP5 DUP5 PUSH2 0xAA7 JUMP JUMPDEST SWAP2 POP SWAP2 POP DUP2 PUSH2 0xA42 JUMPI PUSH1 0x40 MLOAD PUSH3 0x461BCD PUSH1 0xE5 SHL DUP2 MSTORE PUSH1 0x20 PUSH1 0x4 DUP3 ADD MSTORE PUSH1 0x10 PUSH1 0x24 DUP3 ADD MSTORE PUSH16 0x1B9BC81058D8DBDD5B9D08119BDD5B99 PUSH1 0x82 SHL PUSH1 0x44 DUP3 ADD MSTORE PUSH1 0x64 ADD PUSH2 0x363 JUMP JUMPDEST CALLER PUSH1 0x0 SWAP1 DUP2 MSTORE PUSH1 0x20 DUP2 SWAP1 MSTORE PUSH1 0x40 DUP2 KECCAK256 DUP1 SLOAD CALLVALUE SWAP3 SWAP1 PUSH2 0xA61 SWAP1 DUP5 SWAP1 PUSH2 0x111C JUMP JUMPDEST SWAP3 POP POP DUP2 SWAP1 SSTORE POP CALLVALUE PUSH1 0x1 DUP3 DUP2 SLOAD DUP2 LT PUSH2 0xA7C JUMPI PUSH2 0xA7C PUSH2 0xDF8 JUMP JUMPDEST SWAP1 PUSH1 0x0 MSTORE PUSH1 0x20 PUSH1 0x0 KECCAK256 SWAP1 PUSH1 0x3 MUL ADD PUSH1 0x2 ADD PUSH1 0x0 DUP3 DUP3 SLOAD PUSH2 0xA9C SWAP2 SWAP1 PUSH2 0x111C JUMP JUMPDEST SWAP1 SWAP2 SSTORE POP POP POP POP POP POP JUMP JUMPDEST PUSH1 0x0 DUP1 PUSH1 0x0 JUMPDEST PUSH1 0x1 SLOAD DUP2 LT ISZERO PUSH2 0xB4C JUMPI PUSH1 0x1 DUP2 DUP2 SLOAD DUP2 LT PUSH2 0xACA JUMPI PUSH2 0xACA PUSH2 0xDF8 JUMP JUMPDEST SWAP1 PUSH1 0x0 MSTORE PUSH1 0x20 PUSH1 0x0 KECCAK256 SWAP1 PUSH1 0x3 MUL ADD PUSH1 0x1 ADD PUSH1 0x40 MLOAD PUSH1 0x20 ADD PUSH2 0xAEB SWAP2 SWAP1 PUSH2 0xE48 JUMP JUMPDEST PUSH1 0x40 MLOAD PUSH1 0x20 DUP2 DUP4 SUB SUB DUP2 MSTORE SWAP1 PUSH1 0x40 MSTORE DUP1 MLOAD SWAP1 PUSH1 0x20 ADD KECCAK256 DUP6 DUP6 PUSH1 0x40 MLOAD PUSH1 0x20 ADD PUSH2 0xB14 SWAP3 SWAP2 SWAP1 PUSH2 0xED3 JUMP JUMPDEST PUSH1 0x40 MLOAD PUSH1 0x20 DUP2 DUP4 SUB SUB DUP2 MSTORE SWAP1 PUSH1 0x40 MSTORE DUP1 MLOAD SWAP1 PUSH1 0x20 ADD KECCAK256 SUB PUSH2 0xB3A JUMPI PUSH1 0x1 SWAP3 POP SWAP1 POP PUSH2 0xB55 JUMP JUMPDEST DUP1 PUSH2 0xB44 DUP2 PUSH2 0xF18 JUMP JUMPDEST SWAP2 POP POP PUSH2 0xAAD JUMP JUMPDEST POP PUSH1 0x0 DUP1 SWAP2 POP SWAP2 POP JUMPDEST SWAP3 POP SWAP3 SWAP1 POP JUMP JUMPDEST PUSH1 0x0 DUP1 DUP4 PUSH1 0x1F DUP5 ADD SLT PUSH2 0xB6E JUMPI PUSH1 0x0 DUP1 REVERT JUMPDEST POP DUP2 CALLDATALOAD PUSH8 0xFFFFFFFFFFFFFFFF DUP2 GT ISZERO PUSH2 0xB86 JUMPI PUSH1 0x0 DUP1 REVERT JUMPDEST PUSH1 0x20 DUP4 ADD SWAP2 POP DUP4 PUSH1 0x20 DUP3 DUP6 ADD ADD GT ISZERO PUSH2 0xB55 JUMPI PUSH1 0x0 DUP1 REVERT JUMPDEST PUSH1 0x0 DUP1 PUSH1 0x20 DUP4 DUP6 SUB SLT ISZERO PUSH2 0xBB1 JUMPI PUSH1 0x0 DUP1 REVERT JUMPDEST DUP3 CALLDATALOAD PUSH8 0xFFFFFFFFFFFFFFFF DUP2 GT ISZERO PUSH2 0xBC8 JUMPI PUSH1 0x0 DUP1 REVERT JUMPDEST PUSH2 0xBD4 DUP6 DUP3 DUP7 ADD PUSH2 0xB5C JUMP JUMPDEST SWAP1 SWAP7 SWAP1 SWAP6 POP SWAP4 POP POP POP POP JUMP JUMPDEST PUSH1 0x0 PUSH1 0x20 DUP3 DUP5 SUB SLT ISZERO PUSH2 0xBF2 JUMPI PUSH1 0x0 DUP1 REVERT JUMPDEST DUP2 CALLDATALOAD PUSH1 0x1 PUSH1 0x1 PUSH1 0xA0 SHL SUB DUP2 AND DUP2 EQ PUSH2 0xC09 JUMPI PUSH1 0x0 DUP1 REVERT JUMPDEST SWAP4 SWAP3 POP POP POP JUMP JUMPDEST PUSH1 0x0 DUP1 PUSH1 0x0 PUSH1 0x40 DUP5 DUP7 SUB SLT ISZERO PUSH2 0xC25 JUMPI PUSH1 0x0 DUP1 REVERT JUMPDEST DUP4 CALLDATALOAD PUSH8 0xFFFFFFFFFFFFFFFF DUP2 GT ISZERO PUSH2 0xC3C JUMPI PUSH1 0x0 DUP1 REVERT JUMPDEST PUSH2 0xC48 DUP7 DUP3 DUP8 ADD PUSH2 0xB5C JUMP JUMPDEST SWAP1 SWAP8 SWAP1 SWAP7 POP PUSH1 0x20 SWAP6 SWAP1 SWAP6 ADD CALLDATALOAD SWAP5 SWAP4 POP POP POP POP JUMP JUMPDEST PUSH1 0x0 PUSH1 0x20 DUP3 DUP5 SUB SLT ISZERO PUSH2 0xC6E JUMPI PUSH1 0x0 DUP1 REVERT JUMPDEST POP CALLDATALOAD SWAP2 SWAP1 POP JUMP JUMPDEST PUSH1 0x1 DUP1 PUSH1 0xA0 SHL SUB DUP5 AND DUP2 MSTORE PUSH1 0x0 PUSH1 0x20 PUSH1 0x60 DUP2 DUP5 ADD MSTORE DUP5 MLOAD DUP1 PUSH1 0x60 DUP6 ADD MSTORE PUSH1 0x0 JUMPDEST DUP2 DUP2 LT ISZERO PUSH2 0xCB1 JUMPI DUP7 DUP2 ADD DUP4 ADD MLOAD DUP6 DUP3 ADD PUSH1 0x80 ADD MSTORE DUP3 ADD PUSH2 0xC95 JUMP JUMPDEST DUP2 DUP2 GT ISZERO PUSH2 0xCC3 JUMPI PUSH1 0x0 PUSH1 0x80 DUP4 DUP8 ADD ADD MSTORE JUMPDEST POP PUSH1 0x40 DUP5 ADD SWAP5 SWAP1 SWAP5 MSTORE POP POP PUSH1 0x1F SWAP2 SWAP1 SWAP2 ADD PUSH1 0x1F NOT AND ADD PUSH1 0x80 ADD SWAP3 SWAP2 POP POP JUMP JUMPDEST PUSH1 0x0 DUP1 PUSH1 0x0 DUP1 PUSH1 0x0 PUSH1 0x60 DUP7 DUP9 SUB SLT ISZERO PUSH2 0xCFA JUMPI PUSH1 0x0 DUP1 REVERT JUMPDEST DUP6 CALLDATALOAD PUSH8 0xFFFFFFFFFFFFFFFF DUP1 DUP3 GT ISZERO PUSH2 0xD12 JUMPI PUSH1 0x0 DUP1 REVERT JUMPDEST PUSH2 0xD1E DUP10 DUP4 DUP11 ADD PUSH2 0xB5C JUMP JUMPDEST SWAP1 SWAP8 POP SWAP6 POP PUSH1 0x20 DUP9 ADD CALLDATALOAD SWAP2 POP DUP1 DUP3 GT ISZERO PUSH2 0xD37 JUMPI PUSH1 0x0 DUP1 REVERT JUMPDEST DUP2 DUP9 ADD SWAP2 POP DUP9 PUSH1 0x1F DUP4 ADD SLT PUSH2 0xD4B JUMPI PUSH1 0x0 DUP1 REVERT JUMPDEST DUP2 CALLDATALOAD DUP2 DUP2 GT ISZERO PUSH2 0xD5A JUMPI PUSH1 0x0 DUP1 REVERT JUMPDEST DUP10 PUSH1 0x20 DUP3 PUSH1 0x5 SHL DUP6 ADD ADD GT ISZERO PUSH2 0xD6F JUMPI PUSH1 0x0 DUP1 REVERT JUMPDEST SWAP7 SWAP10 SWAP6 SWAP9 POP POP PUSH1 0x20 ADD SWAP6 PUSH1 0x40 ADD CALLDATALOAD SWAP4 SWAP3 POP POP POP JUMP JUMPDEST PUSH1 0x0 DUP1 PUSH1 0x0 DUP1 PUSH1 0x0 PUSH1 0x60 DUP7 DUP9 SUB SLT ISZERO PUSH2 0xD9C JUMPI PUSH1 0x0 DUP1 REVERT JUMPDEST DUP6 CALLDATALOAD PUSH8 0xFFFFFFFFFFFFFFFF DUP1 DUP3 GT ISZERO PUSH2 0xDB4 JUMPI PUSH1 0x0 DUP1 REVERT JUMPDEST PUSH2 0xDC0 DUP10 DUP4 DUP11 ADD PUSH2 0xB5C JUMP JUMPDEST SWAP1 SWAP8 POP SWAP6 POP PUSH1 0x20 DUP9 ADD CALLDATALOAD SWAP2 POP DUP1 DUP3 GT ISZERO PUSH2 0xDD9 JUMPI PUSH1 0x0 DUP1 REVERT JUMPDEST POP PUSH2 0xDE6 DUP9 DUP3 DUP10 ADD PUSH2 0xB5C JUMP JUMPDEST SWAP7 SWAP10 SWAP6 SWAP9 POP SWAP7 PUSH1 0x40 ADD CALLDATALOAD SWAP5 SWAP4 POP POP POP POP JUMP JUMPDEST PUSH4 0x4E487B71 PUSH1 0xE0 SHL PUSH1 0x0 MSTORE PUSH1 0x32 PUSH1 0x4 MSTORE PUSH1 0x24 PUSH1 0x0 REVERT JUMPDEST PUSH1 0x1 DUP2 DUP2 SHR SWAP1 DUP3 AND DUP1 PUSH2 0xE22 JUMPI PUSH1 0x7F DUP3 AND SWAP2 POP JUMPDEST PUSH1 0x20 DUP3 LT DUP2 SUB PUSH2 0xE42 JUMPI PUSH4 0x4E487B71 PUSH1 0xE0 SHL PUSH1 0x0 MSTORE PUSH1 0x22 PUSH1 0x4 MSTORE PUSH1 0x24 PUSH1 0x0 REVERT JUMPDEST POP SWAP2 SWAP1 POP JUMP JUMPDEST PUSH1 0x0 PUSH1 0x20 DUP1 DUP4 MSTORE PUSH1 0x0 DUP5 SLOAD PUSH2 0xE5C DUP2 PUSH2 0xE0E JUMP JUMPDEST DUP1 DUP5 DUP8 ADD MSTORE PUSH1 0x40 PUSH1 0x1 DUP1 DUP5 AND PUSH1 0x0 DUP2 EQ PUSH2 0xE7D JUMPI PUSH1 0x1 DUP2 EQ PUSH2 0xE97 JUMPI PUSH2 0xEC5 JUMP JUMPDEST PUSH1 0xFF NOT DUP6 AND DUP10 DUP5 ADD MSTORE DUP4 ISZERO ISZERO PUSH1 0x5 SHL DUP10 ADD DUP4 ADD SWAP6 POP PUSH2 0xEC5 JUMP JUMPDEST DUP10 PUSH1 0x0 MSTORE DUP7 PUSH1 0x0 KECCAK256 PUSH1 0x0 JUMPDEST DUP6 DUP2 LT ISZERO PUSH2 0xEBD JUMPI DUP2 SLOAD DUP12 DUP3 ADD DUP7 ADD MSTORE SWAP1 DUP4 ADD SWAP1 DUP9 ADD PUSH2 0xEA2 JUMP JUMPDEST DUP11 ADD DUP5 ADD SWAP7 POP POP JUMPDEST POP SWAP4 SWAP9 SWAP8 POP POP POP POP POP POP POP POP JUMP JUMPDEST PUSH1 0x20 DUP2 MSTORE DUP2 PUSH1 0x20 DUP3 ADD MSTORE DUP2 DUP4 PUSH1 0x40 DUP4 ADD CALLDATACOPY PUSH1 0x0 DUP2 DUP4 ADD PUSH1 0x40 SWAP1 DUP2 ADD SWAP2 SWAP1 SWAP2 MSTORE PUSH1 0x1F SWAP1 SWAP3 ADD PUSH1 0x1F NOT AND ADD ADD SWAP2 SWAP1 POP JUMP JUMPDEST PUSH4 0x4E487B71 PUSH1 0xE0 SHL PUSH1 0x0 MSTORE PUSH1 0x11 PUSH1 0x4 MSTORE PUSH1 0x24 PUSH1 0x0 REVERT JUMPDEST PUSH1 0x0 PUSH1 0x1 DUP3 ADD PUSH2 0xF2A JUMPI PUSH2 0xF2A PUSH2 0xF02 JUMP JUMPDEST POP PUSH1 0x1 ADD SWAP1 JUMP JUMPDEST PUSH4 0x4E487B71 PUSH1 0xE0 SHL PUSH1 0x0 MSTORE PUSH1 0x41 PUSH1 0x4 MSTORE PUSH1 0x24 PUSH1 0x0 REVERT JUMPDEST PUSH1 0x1F DUP3 GT ISZERO PUSH2 0xF8D JUMPI PUSH1 0x0 DUP2 DUP2 MSTORE PUSH1 0x20 DUP2 KECCAK256 PUSH1 0x1F DUP6 ADD PUSH1 0x5 SHR DUP2 ADD PUSH1 0x20 DUP7 LT ISZERO PUSH2 0xF6E JUMPI POP DUP1 JUMPDEST PUSH1 0x1F DUP6 ADD PUSH1 0x5 SHR DUP3 ADD SWAP2 POP JUMPDEST DUP2 DUP2 LT ISZERO PUSH2 0x75D JUMPI DUP3 DUP2 SSTORE PUSH1 0x1 ADD PUSH2 0xF7A JUMP JUMPDEST POP POP POP JUMP JUMPDEST DUP2 MLOAD PUSH8 0xFFFFFFFFFFFFFFFF DUP2 GT ISZERO PUSH2 0xFAC JUMPI PUSH2 0xFAC PUSH2 0xF31 JUMP JUMPDEST PUSH2 0xFC0 DUP2 PUSH2 0xFBA DUP5 SLOAD PUSH2 0xE0E JUMP JUMPDEST DUP5 PUSH2 0xF47 JUMP JUMPDEST PUSH1 0x20 DUP1 PUSH1 0x1F DUP4 GT PUSH1 0x1 DUP2 EQ PUSH2 0xFF5 JUMPI PUSH1 0x0 DUP5 ISZERO PUSH2 0xFDD JUMPI POP DUP6 DUP4 ADD MLOAD JUMPDEST PUSH1 0x0 NOT PUSH1 0x3 DUP7 SWAP1 SHL SHR NOT AND PUSH1 0x1 DUP6 SWAP1 SHL OR DUP6 SSTORE PUSH2 0x75D JUMP JUMPDEST PUSH1 0x0 DUP6 DUP2 MSTORE PUSH1 0x20 DUP2 KECCAK256 PUSH1 0x1F NOT DUP7 AND SWAP2 JUMPDEST DUP3 DUP2 LT ISZERO PUSH2 0x1024 JUMPI DUP9 DUP7 ADD MLOAD DUP3 SSTORE SWAP5 DUP5 ADD SWAP5 PUSH1 0x1 SWAP1 SWAP2 ADD SWAP1 DUP5 ADD PUSH2 0x1005 JUMP JUMPDEST POP DUP6 DUP3 LT ISZERO PUSH2 0x1042 JUMPI DUP8 DUP6 ADD MLOAD PUSH1 0x0 NOT PUSH1 0x3 DUP9 SWAP1 SHL PUSH1 0xF8 AND SHR NOT AND DUP2 SSTORE JUMPDEST POP POP POP POP POP PUSH1 0x1 SWAP1 DUP2 SHL ADD SWAP1 SSTORE POP JUMP JUMPDEST PUSH1 0x20 DUP1 DUP3 MSTORE PUSH1 0x11 SWAP1 DUP3 ADD MSTORE PUSH17 0x1B9BC81058D8C81BDD5B9D08119BDD5B99 PUSH1 0x7A SHL PUSH1 0x40 DUP3 ADD MSTORE PUSH1 0x60 ADD SWAP1 JUMP JUMPDEST PUSH1 0x0 DUP3 DUP3 LT ISZERO PUSH2 0x108F JUMPI PUSH2 0x108F PUSH2 0xF02 JUMP JUMPDEST POP SUB SWAP1 JUMP JUMPDEST PUSH1 0x0 DUP1 DUP4 CALLDATALOAD PUSH1 0x1E NOT DUP5 CALLDATASIZE SUB ADD DUP2 SLT PUSH2 0x10AB JUMPI PUSH1 0x0 DUP1 REVERT JUMPDEST DUP4 ADD DUP1 CALLDATALOAD SWAP2 POP PUSH8 0xFFFFFFFFFFFFFFFF DUP3 GT ISZERO PUSH2 0x10C6 JUMPI PUSH1 0x0 DUP1 REVERT JUMPDEST PUSH1 0x20 ADD SWAP2 POP CALLDATASIZE DUP2 SWAP1 SUB DUP3 SGT ISZERO PUSH2 0xB55 JUMPI PUSH1 0x0 DUP1 REVERT JUMPDEST PUSH1 0x0 DUP2 PUSH1 0x0 NOT DIV DUP4 GT DUP3 ISZERO ISZERO AND ISZERO PUSH2 0x10F5 JUMPI PUSH2 0x10F5 PUSH2 0xF02 JUMP JUMPDEST POP MUL SWAP1 JUMP JUMPDEST PUSH1 0x0 DUP3 PUSH2 0x1117 JUMPI PUSH4 0x4E487B71 PUSH1 0xE0 SHL PUSH1 0x0 MSTORE PUSH1 0x12 PUSH1 0x4 MSTORE PUSH1 0x24 PUSH1 0x0 REVERT JUMPDEST POP DIV SWAP1 JUMP JUMPDEST PUSH1 0x0 DUP3 NOT DUP3 GT ISZERO PUSH2 0x112F JUMPI PUSH2 0x112F PUSH2 0xF02 JUMP JUMPDEST POP ADD SWAP1 JUMP INVALID LOG2 PUSH5 0x6970667358 0x22 SLT KECCAK256 0xE6 SDIV PUSH23 0x749EE2E00680909C3B6158DFB8C9A257F748EF93022A70 SWAP3 LOG2 0x29 PUSH6 0x9EEB64736F6C PUSH4 0x4300080F STOP CALLER ",
  "sha1": "e905982b16fadc08f053adfd091cc62c633e4d5d",
  "source": "pragma solidity >=0.6.0;\n\n\ncontract Bank {\n\n    mapping (address => uint ) private _balances;\n\n    struct bankAccount {\n        address owner;\n        string accountName;\n        uint balances;\n    }\n\n    bankAccount[] public accountList;\n    address bankOwner;\n\n    constructor ()  {\n       bankOwner = msg.sender;\n    }\n\n    function setOwner(address newOwner) external {\n     require(msg.sender == bankOwner , \"you is not bank owner\");\n     bankOwner = newOwner;\n    }\n\n    function getOwner() public returns(address){\n        return bankOwner;\n    }\n\n    function createAccount(string calldata accountName) public {\n        bool checkDup = isDupAccountName(accountName);\n        require(!checkDup, \"is Duplicatate account name\");\n        bankAccount memory newAccount = bankAccount(msg.sender,accountName,0);\n        accountList.push(newAccount);\n    }\n\n    function countAccount() public returns(uint) {\n      return accountList.length;\n    }\n\n    function isDupAccountName(string calldata accountName) public returns(bool) {\n        for (uint256 i = 0 ; i < accountList.length ; i++){\n            if(keccak256(abi.encode(accountName)) == keccak256(abi.encode(accountList[i].accountName))){\n                return true ;\n            }\n        }\n        return false;\n    }\n\n    function deposit(string calldata accountName) payable public {\n        (bool found, uint index) = getIndexByAccountName(accountName);\n        require(found, \"no Account Found\");\n\n        _balances[msg.sender] += msg.value;\n        accountList[index].balances += msg.value;\n    }\n\n    function balanceOf(string calldata accountName) public returns(uint) {\n        (bool found, uint index) = getIndexByAccountName(accountName);\n        require(found, \"no Acc ount Found\");\n        return accountList[index].balances;\n    }\n\n    function getIndexByAccountName(string calldata accountName) public returns(bool,uint) {\n        for (uint256 i = 0 ; i < accountList.length ; i++){\n            if(keccak256(abi.encode(accountName)) == keccak256(abi.encode(accountList[i].accountName))){\n                return (true, i);\n            }\n        }\n        return (false, 0);\n    }\n\n    function withdraw(string calldata accountName, uint amount) public {\n        (bool found, uint index) = getIndexByAccountName(accountName);\n        require(found, \"no Acc ount Found\");\n        require(accountList[index].owner == msg.sender);\n        require(accountList[index].balances >= amount);\n\n        _balances[msg.sender] -= amount;\n        accountList[index].balances -= amount;\n    }\n\n    function tranfer(string calldata currentAccount, string calldata reciveAccount, uint amount) public{\n        (bool foundCurrent, uint currentIndex) = getIndexByAccountName(currentAccount);\n        require(foundCurrent, \"no Acc ount Found\");\n        require(accountList[currentIndex].owner == msg.sender);\n        require(accountList[currentIndex].balances >= amount);\n\n        (bool foundRecive, uint reciveIndex) = getIndexByAccountName(reciveAccount);\n        require(foundRecive, \"no Acc ount Found\");\n\n        uint free = 0;\n        if(accountList[currentIndex].owner != accountList[reciveIndex].owner){\n            free = amount * 1/100;\n            _balances[bankOwner] += free;\n        }\n        _balances[msg.sender] -= amount;\n        accountList[currentIndex].balances -= amount;\n\n        accountList[reciveIndex].balances += amount - free;\n        _balances[accountList[reciveIndex].owner] += amount - free;\n    }\n\n    function multipleTranfer(string calldata currentAccount, string[] calldata reciveAccountList, uint amount) public{\n        for(uint i = 0; i < reciveAccountList.length; i++){        \n            tranfer(currentAccount, reciveAccountList[i], amount);\n        }\n    }\n\n    \n}",
  "sourcePath": "contracts/Bank.sol",
  "type": "contract"
}